{
  "_format": "hh-sol-artifact-1",
  "contractName": "BookMarketplace",
  "sourceName": "src/backend/contracts/Marketplace.sol",
  "abi": [
    {
      "inputs": [
        {
          "internalType": "address",
          "name": "_bookTokenContract",
          "type": "address"
        }
      ],
      "stateMutability": "nonpayable",
      "type": "constructor"
    },
    {
      "anonymous": false,
      "inputs": [
        {
          "indexed": true,
          "internalType": "address",
          "name": "seller",
          "type": "address"
        },
        {
          "indexed": true,
          "internalType": "uint256",
          "name": "tokenId",
          "type": "uint256"
        },
        {
          "indexed": false,
          "internalType": "uint256",
          "name": "price",
          "type": "uint256"
        },
        {
          "indexed": false,
          "internalType": "uint256",
          "name": "quantity",
          "type": "uint256"
        }
      ],
      "name": "BookListed",
      "type": "event"
    },
    {
      "anonymous": false,
      "inputs": [
        {
          "indexed": true,
          "internalType": "address",
          "name": "buyer",
          "type": "address"
        },
        {
          "indexed": true,
          "internalType": "address",
          "name": "seller",
          "type": "address"
        },
        {
          "indexed": true,
          "internalType": "uint256",
          "name": "tokenId",
          "type": "uint256"
        },
        {
          "indexed": false,
          "internalType": "uint256",
          "name": "price",
          "type": "uint256"
        },
        {
          "indexed": false,
          "internalType": "uint256",
          "name": "quantity",
          "type": "uint256"
        }
      ],
      "name": "BookPurchased",
      "type": "event"
    },
    {
      "inputs": [
        {
          "internalType": "uint256",
          "name": "",
          "type": "uint256"
        },
        {
          "internalType": "uint256",
          "name": "",
          "type": "uint256"
        }
      ],
      "name": "bookListings",
      "outputs": [
        {
          "internalType": "address",
          "name": "seller",
          "type": "address"
        },
        {
          "internalType": "uint256",
          "name": "tokenId",
          "type": "uint256"
        },
        {
          "internalType": "uint256",
          "name": "price",
          "type": "uint256"
        },
        {
          "internalType": "uint256",
          "name": "quantity",
          "type": "uint256"
        }
      ],
      "stateMutability": "view",
      "type": "function"
    },
    {
      "inputs": [],
      "name": "bookTokenContract",
      "outputs": [
        {
          "internalType": "contract IERC1155",
          "name": "",
          "type": "address"
        }
      ],
      "stateMutability": "view",
      "type": "function"
    },
    {
      "inputs": [
        {
          "internalType": "uint256",
          "name": "tokenId",
          "type": "uint256"
        },
        {
          "internalType": "uint256",
          "name": "quantity",
          "type": "uint256"
        }
      ],
      "name": "buyBook",
      "outputs": [],
      "stateMutability": "payable",
      "type": "function"
    },
    {
      "inputs": [
        {
          "internalType": "uint256",
          "name": "tokenId",
          "type": "uint256"
        },
        {
          "internalType": "uint256",
          "name": "price",
          "type": "uint256"
        },
        {
          "internalType": "uint256",
          "name": "quantity",
          "type": "uint256"
        }
      ],
      "name": "listBookForSale",
      "outputs": [],
      "stateMutability": "nonpayable",
      "type": "function"
    }
  ],
  "bytecode": "0x608060405234801561001057600080fd5b50604051610f87380380610f8783398181016040528101906100329190610096565b600160008190555080600160006101000a81548173ffffffffffffffffffffffffffffffffffffffff021916908373ffffffffffffffffffffffffffffffffffffffff16021790555050610108565b600081519050610090816100f1565b92915050565b6000602082840312156100a857600080fd5b60006100b684828501610081565b91505092915050565b60006100ca826100d1565b9050919050565b600073ffffffffffffffffffffffffffffffffffffffff82169050919050565b6100fa816100bf565b811461010557600080fd5b50565b610e70806101176000396000f3fe60806040526004361061003f5760003560e01c80630b4ee751146100445780633af8c2d51461006d5780635fd3f12914610089578063ff6ba46c146100b4575b600080fd5b34801561005057600080fd5b5061006b6004803603810190610066919061083e565b6100f4565b005b61008760048036038101906100829190610802565b61035b565b005b34801561009557600080fd5b5061009e61071c565b6040516100ab9190610a75565b60405180910390f35b3480156100c057600080fd5b506100db60048036038101906100d69190610802565b610742565b6040516100eb9493929190610a30565b60405180910390f35b80600160009054906101000a900473ffffffffffffffffffffffffffffffffffffffff1673ffffffffffffffffffffffffffffffffffffffff1662fdd58e33866040518363ffffffff1660e01b8152600401610151929190610a07565b60206040518083038186803b15801561016957600080fd5b505afa15801561017d573d6000803e3d6000fd5b505050506040513d601f19601f820116820180604052508101906101a191906107d9565b10156101e2576040517f08c379a00000000000000000000000000000000000000000000000000000000081526004016101d990610af0565b60405180910390fd5b60008111610225576040517f08c379a000000000000000000000000000000000000000000000000000000000815260040161021c90610a90565b60405180910390fd5b600060405180608001604052803373ffffffffffffffffffffffffffffffffffffffff1681526020018581526020018481526020018381525090506002600085815260200190815260200160002081908060018154018082558091505060019003906000526020600020906004020160009091909190915060008201518160000160006101000a81548173ffffffffffffffffffffffffffffffffffffffff021916908373ffffffffffffffffffffffffffffffffffffffff1602179055506020820151816001015560408201518160020155606082015181600301555050833373ffffffffffffffffffffffffffffffffffffffff167fc8aed3f699cb881c588ec2b8ea9da6ed157e58699684014ab0ed4e68af111889858560405161034d929190610b50565b60405180910390a350505050565b600260005414156103a1576040517f08c379a000000000000000000000000000000000000000000000000000000000815260040161039890610b10565b60405180910390fd5b60026000819055506000600260008481526020019081526020016000208054905011610402576040517f08c379a00000000000000000000000000000000000000000000000000000000081526004016103f990610ab0565b60405180910390fd5b60008111610445576040517f08c379a000000000000000000000000000000000000000000000000000000000815260040161043c90610a90565b60405180910390fd5b600060026000848152602001908152602001600020600081548110610493577f4e487b7100000000000000000000000000000000000000000000000000000000600052603260045260246000fd5b9060005260206000209060040201905081816003015410156104ea576040517f08c379a00000000000000000000000000000000000000000000000000000000081526004016104e190610ad0565b60405180910390fd5b60008282600201546104fc9190610b9b565b905080341015610541576040517f08c379a000000000000000000000000000000000000000000000000000000000815260040161053890610b30565b60405180910390fd5b600160009054906101000a900473ffffffffffffffffffffffffffffffffffffffff1673ffffffffffffffffffffffffffffffffffffffff1663f242432a8360000160009054906101000a900473ffffffffffffffffffffffffffffffffffffffff163387876040518563ffffffff1660e01b81526004016105c694939291906109af565b600060405180830381600087803b1580156105e057600080fd5b505af11580156105f4573d6000803e3d6000fd5b505050508160000160009054906101000a900473ffffffffffffffffffffffffffffffffffffffff1673ffffffffffffffffffffffffffffffffffffffff166108fc829081150290604051600060405180830381858888f19350505050158015610662573d6000803e3d6000fd5b50828260030160008282546106779190610bf5565b92505081905550838260000160009054906101000a900473ffffffffffffffffffffffffffffffffffffffff1673ffffffffffffffffffffffffffffffffffffffff163373ffffffffffffffffffffffffffffffffffffffff167f82427b2c821e89bf0bbd9d9912fd743efe9b05d45c7b7576211021e98fe9bc18856002015487604051610706929190610b50565b60405180910390a4505060016000819055505050565b600160009054906101000a900473ffffffffffffffffffffffffffffffffffffffff1681565b6002602052816000526040600020818154811061075e57600080fd5b9060005260206000209060040201600091509150508060000160009054906101000a900473ffffffffffffffffffffffffffffffffffffffff16908060010154908060020154908060030154905084565b6000813590506107be81610e23565b92915050565b6000815190506107d381610e23565b92915050565b6000602082840312156107eb57600080fd5b60006107f9848285016107c4565b91505092915050565b6000806040838503121561081557600080fd5b6000610823858286016107af565b9250506020610834858286016107af565b9150509250929050565b60008060006060848603121561085357600080fd5b6000610861868287016107af565b9350506020610872868287016107af565b9250506040610883868287016107af565b9150509250925092565b61089681610c29565b82525050565b6108a581610c65565b82525050565b60006108b8601f83610b8a565b91506108c382610cb8565b602082019050919050565b60006108db602483610b8a565b91506108e682610ce1565b604082019050919050565b60006108fe602a83610b8a565b915061090982610d30565b604082019050919050565b6000610921602483610b8a565b915061092c82610d7f565b604082019050919050565b6000610944600083610b79565b915061094f82610dce565b600082019050919050565b6000610967601f83610b8a565b915061097282610dd1565b602082019050919050565b600061098a601783610b8a565b915061099582610dfa565b602082019050919050565b6109a981610c5b565b82525050565b600060a0820190506109c4600083018761088d565b6109d1602083018661088d565b6109de60408301856109a0565b6109eb60608301846109a0565b81810360808301526109fc81610937565b905095945050505050565b6000604082019050610a1c600083018561088d565b610a2960208301846109a0565b9392505050565b6000608082019050610a45600083018761088d565b610a5260208301866109a0565b610a5f60408301856109a0565b610a6c60608301846109a0565b95945050505050565b6000602082019050610a8a600083018461089c565b92915050565b60006020820190508181036000830152610aa9816108ab565b9050919050565b60006020820190508181036000830152610ac9816108ce565b9050919050565b60006020820190508181036000830152610ae9816108f1565b9050919050565b60006020820190508181036000830152610b0981610914565b9050919050565b60006020820190508181036000830152610b298161095a565b9050919050565b60006020820190508181036000830152610b498161097d565b9050919050565b6000604082019050610b6560008301856109a0565b610b7260208301846109a0565b9392505050565b600082825260208201905092915050565b600082825260208201905092915050565b6000610ba682610c5b565b9150610bb183610c5b565b9250817fffffffffffffffffffffffffffffffffffffffffffffffffffffffffffffffff0483118215151615610bea57610be9610c89565b5b828202905092915050565b6000610c0082610c5b565b9150610c0b83610c5b565b925082821015610c1e57610c1d610c89565b5b828203905092915050565b6000610c3482610c3b565b9050919050565b600073ffffffffffffffffffffffffffffffffffffffff82169050919050565b6000819050919050565b6000610c7082610c77565b9050919050565b6000610c8282610c3b565b9050919050565b7f4e487b7100000000000000000000000000000000000000000000000000000000600052601160045260246000fd5b7f5175616e74697479206d7573742062652067726561746572207468616e203000600082015250565b7f4e6f206c697374696e677320617661696c61626c6520666f722074686973206260008201527f6f6f6b2e00000000000000000000000000000000000000000000000000000000602082015250565b7f4e6f7420656e6f75676820626f6f6b7320617661696c61626c6520696e20746860008201527f6973206c697374696e6700000000000000000000000000000000000000000000602082015250565b7f596f7520646f6e2774206861766520656e6f75676820626f6f6b7320746f206c60008201527f6973742e00000000000000000000000000000000000000000000000000000000602082015250565b50565b7f5265656e7472616e637947756172643a207265656e7472616e742063616c6c00600082015250565b7f496e73756666696369656e742066756e64732073656e74000000000000000000600082015250565b610e2c81610c5b565b8114610e3757600080fd5b5056fea264697066735822122062e9363a6c2a58812d1af87cfb9fc190930d0c777c3376b215d31db14692696664736f6c63430008040033",
  "linkReferences": {},
  "deployedLinkReferences": {}
}