{
  "_format": "hh-sol-artifact-1",
  "contractName": "BOOK",
  "sourceName": "src/backend/contracts/BOOK.sol",
  "abi": [
    {
      "inputs": [
        {
          "internalType": "string",
          "name": "_name",
          "type": "string"
        },
        {
          "internalType": "string",
          "name": "_symbol",
          "type": "string"
        }
      ],
      "stateMutability": "nonpayable",
      "type": "constructor"
    },
    {
      "anonymous": false,
      "inputs": [
        {
          "indexed": true,
          "internalType": "address",
          "name": "account",
          "type": "address"
        },
        {
          "indexed": true,
          "internalType": "address",
          "name": "operator",
          "type": "address"
        },
        {
          "indexed": false,
          "internalType": "bool",
          "name": "approved",
          "type": "bool"
        }
      ],
      "name": "ApprovalForAll",
      "type": "event"
    },
    {
      "anonymous": false,
      "inputs": [
        {
          "indexed": true,
          "internalType": "address",
          "name": "previousOwner",
          "type": "address"
        },
        {
          "indexed": true,
          "internalType": "address",
          "name": "newOwner",
          "type": "address"
        }
      ],
      "name": "OwnershipTransferred",
      "type": "event"
    },
    {
      "anonymous": false,
      "inputs": [
        {
          "indexed": true,
          "internalType": "address",
          "name": "operator",
          "type": "address"
        },
        {
          "indexed": true,
          "internalType": "address",
          "name": "from",
          "type": "address"
        },
        {
          "indexed": true,
          "internalType": "address",
          "name": "to",
          "type": "address"
        },
        {
          "indexed": false,
          "internalType": "uint256[]",
          "name": "ids",
          "type": "uint256[]"
        },
        {
          "indexed": false,
          "internalType": "uint256[]",
          "name": "values",
          "type": "uint256[]"
        }
      ],
      "name": "TransferBatch",
      "type": "event"
    },
    {
      "anonymous": false,
      "inputs": [
        {
          "indexed": true,
          "internalType": "address",
          "name": "operator",
          "type": "address"
        },
        {
          "indexed": true,
          "internalType": "address",
          "name": "from",
          "type": "address"
        },
        {
          "indexed": true,
          "internalType": "address",
          "name": "to",
          "type": "address"
        },
        {
          "indexed": false,
          "internalType": "uint256",
          "name": "id",
          "type": "uint256"
        },
        {
          "indexed": false,
          "internalType": "uint256",
          "name": "value",
          "type": "uint256"
        }
      ],
      "name": "TransferSingle",
      "type": "event"
    },
    {
      "anonymous": false,
      "inputs": [
        {
          "indexed": false,
          "internalType": "string",
          "name": "value",
          "type": "string"
        },
        {
          "indexed": true,
          "internalType": "uint256",
          "name": "id",
          "type": "uint256"
        }
      ],
      "name": "URI",
      "type": "event"
    },
    {
      "inputs": [
        {
          "internalType": "address",
          "name": "account",
          "type": "address"
        },
        {
          "internalType": "uint256",
          "name": "id",
          "type": "uint256"
        }
      ],
      "name": "balanceOf",
      "outputs": [
        {
          "internalType": "uint256",
          "name": "",
          "type": "uint256"
        }
      ],
      "stateMutability": "view",
      "type": "function"
    },
    {
      "inputs": [
        {
          "internalType": "address[]",
          "name": "accounts",
          "type": "address[]"
        },
        {
          "internalType": "uint256[]",
          "name": "ids",
          "type": "uint256[]"
        }
      ],
      "name": "balanceOfBatch",
      "outputs": [
        {
          "internalType": "uint256[]",
          "name": "",
          "type": "uint256[]"
        }
      ],
      "stateMutability": "view",
      "type": "function"
    },
    {
      "inputs": [
        {
          "internalType": "address",
          "name": "account",
          "type": "address"
        },
        {
          "internalType": "address",
          "name": "operator",
          "type": "address"
        }
      ],
      "name": "isApprovedForAll",
      "outputs": [
        {
          "internalType": "bool",
          "name": "",
          "type": "bool"
        }
      ],
      "stateMutability": "view",
      "type": "function"
    },
    {
      "inputs": [
        {
          "internalType": "address",
          "name": "account",
          "type": "address"
        },
        {
          "internalType": "uint256",
          "name": "id",
          "type": "uint256"
        },
        {
          "internalType": "uint256",
          "name": "amount",
          "type": "uint256"
        },
        {
          "internalType": "bytes",
          "name": "data",
          "type": "bytes"
        }
      ],
      "name": "mint",
      "outputs": [],
      "stateMutability": "nonpayable",
      "type": "function"
    },
    {
      "inputs": [
        {
          "internalType": "address",
          "name": "to",
          "type": "address"
        },
        {
          "internalType": "uint256[]",
          "name": "ids",
          "type": "uint256[]"
        },
        {
          "internalType": "uint256[]",
          "name": "amounts",
          "type": "uint256[]"
        },
        {
          "internalType": "bytes",
          "name": "data",
          "type": "bytes"
        }
      ],
      "name": "mintBatch",
      "outputs": [],
      "stateMutability": "nonpayable",
      "type": "function"
    },
    {
      "inputs": [],
      "name": "name",
      "outputs": [
        {
          "internalType": "string",
          "name": "",
          "type": "string"
        }
      ],
      "stateMutability": "view",
      "type": "function"
    },
    {
      "inputs": [],
      "name": "owner",
      "outputs": [
        {
          "internalType": "address",
          "name": "",
          "type": "address"
        }
      ],
      "stateMutability": "view",
      "type": "function"
    },
    {
      "inputs": [],
      "name": "renounceOwnership",
      "outputs": [],
      "stateMutability": "nonpayable",
      "type": "function"
    },
    {
      "inputs": [
        {
          "internalType": "address",
          "name": "from",
          "type": "address"
        },
        {
          "internalType": "address",
          "name": "to",
          "type": "address"
        },
        {
          "internalType": "uint256[]",
          "name": "ids",
          "type": "uint256[]"
        },
        {
          "internalType": "uint256[]",
          "name": "amounts",
          "type": "uint256[]"
        },
        {
          "internalType": "bytes",
          "name": "data",
          "type": "bytes"
        }
      ],
      "name": "safeBatchTransferFrom",
      "outputs": [],
      "stateMutability": "nonpayable",
      "type": "function"
    },
    {
      "inputs": [
        {
          "internalType": "address",
          "name": "from",
          "type": "address"
        },
        {
          "internalType": "address",
          "name": "to",
          "type": "address"
        },
        {
          "internalType": "uint256",
          "name": "id",
          "type": "uint256"
        },
        {
          "internalType": "uint256",
          "name": "amount",
          "type": "uint256"
        },
        {
          "internalType": "bytes",
          "name": "data",
          "type": "bytes"
        }
      ],
      "name": "safeTransferFrom",
      "outputs": [],
      "stateMutability": "nonpayable",
      "type": "function"
    },
    {
      "inputs": [
        {
          "internalType": "address",
          "name": "operator",
          "type": "address"
        },
        {
          "internalType": "bool",
          "name": "approved",
          "type": "bool"
        }
      ],
      "name": "setApprovalForAll",
      "outputs": [],
      "stateMutability": "nonpayable",
      "type": "function"
    },
    {
      "inputs": [
        {
          "internalType": "string",
          "name": "newURI",
          "type": "string"
        }
      ],
      "name": "setURI",
      "outputs": [],
      "stateMutability": "nonpayable",
      "type": "function"
    },
    {
      "inputs": [
        {
          "internalType": "bytes4",
          "name": "interfaceId",
          "type": "bytes4"
        }
      ],
      "name": "supportsInterface",
      "outputs": [
        {
          "internalType": "bool",
          "name": "",
          "type": "bool"
        }
      ],
      "stateMutability": "view",
      "type": "function"
    },
    {
      "inputs": [],
      "name": "symbol",
      "outputs": [
        {
          "internalType": "string",
          "name": "",
          "type": "string"
        }
      ],
      "stateMutability": "view",
      "type": "function"
    },
    {
      "inputs": [
        {
          "internalType": "address",
          "name": "newOwner",
          "type": "address"
        }
      ],
      "name": "transferOwnership",
      "outputs": [],
      "stateMutability": "nonpayable",
      "type": "function"
    },
    {
      "inputs": [
        {
          "internalType": "uint256",
          "name": "",
          "type": "uint256"
        }
      ],
      "name": "uri",
      "outputs": [
        {
          "internalType": "string",
          "name": "",
          "type": "string"
        }
      ],
      "stateMutability": "view",
      "type": "function"
    }
  ],
  "bytecode": "0x60806040523480156200001157600080fd5b5060405162003a1138038062003a118339818101604052810190620000379190620002bf565b604051806020016040528060008152506200005881620000b360201b60201c565b50620000796200006d620000cf60201b60201c565b620000d760201b60201c565b8160049080519060200190620000919291906200019d565b508060059080519060200190620000aa9291906200019d565b505050620004a2565b8060029080519060200190620000cb9291906200019d565b5050565b600033905090565b6000600360009054906101000a900473ffffffffffffffffffffffffffffffffffffffff16905081600360006101000a81548173ffffffffffffffffffffffffffffffffffffffff021916908373ffffffffffffffffffffffffffffffffffffffff1602179055508173ffffffffffffffffffffffffffffffffffffffff168173ffffffffffffffffffffffffffffffffffffffff167f8be0079c531659141344cd1fd0a4f28419497f9722a3daafe3b4186f6b6457e060405160405180910390a35050565b828054620001ab90620003c7565b90600052602060002090601f016020900481019282620001cf57600085556200021b565b82601f10620001ea57805160ff19168380011785556200021b565b828001600101855582156200021b579182015b828111156200021a578251825591602001919060010190620001fd565b5b5090506200022a91906200022e565b5090565b5b80821115620002495760008160009055506001016200022f565b5090565b6000620002646200025e846200035b565b62000332565b9050828152602081018484840111156200027d57600080fd5b6200028a84828562000391565b509392505050565b600082601f830112620002a457600080fd5b8151620002b68482602086016200024d565b91505092915050565b60008060408385031215620002d357600080fd5b600083015167ffffffffffffffff811115620002ee57600080fd5b620002fc8582860162000292565b925050602083015167ffffffffffffffff8111156200031a57600080fd5b620003288582860162000292565b9150509250929050565b60006200033e62000351565b90506200034c8282620003fd565b919050565b6000604051905090565b600067ffffffffffffffff82111562000379576200037862000462565b5b620003848262000491565b9050602081019050919050565b60005b83811015620003b157808201518184015260208101905062000394565b83811115620003c1576000848401525b50505050565b60006002820490506001821680620003e057607f821691505b60208210811415620003f757620003f662000433565b5b50919050565b620004088262000491565b810181811067ffffffffffffffff821117156200042a576200042962000462565b5b80604052505050565b7f4e487b7100000000000000000000000000000000000000000000000000000000600052602260045260246000fd5b7f4e487b7100000000000000000000000000000000000000000000000000000000600052604160045260246000fd5b6000601f19601f8301169050919050565b61355f80620004b26000396000f3fe608060405234801561001057600080fd5b50600436106100ff5760003560e01c8063715018a611610097578063a22cb46511610066578063a22cb46514610298578063e985e9c5146102b4578063f242432a146102e4578063f2fde38b14610300576100ff565b8063715018a614610236578063731133e9146102405780638da5cb5b1461025c57806395d89b411461027a576100ff565b80630e89341c116100d35780630e89341c1461019e5780631f7fdffa146101ce5780632eb2c2d6146101ea5780634e1273f414610206576100ff565b8062fdd58e1461010457806301ffc9a71461013457806302fe53051461016457806306fdde0314610180575b600080fd5b61011e60048036038101906101199190612464565b61031c565b60405161012b9190612c41565b60405180910390f35b61014e60048036038101906101499190612587565b6103e5565b60405161015b9190612a64565b60405180910390f35b61017e600480360381019061017991906125d9565b6104c7565b005b61018861054f565b6040516101959190612a7f565b60405180910390f35b6101b860048036038101906101b3919061261a565b6105dd565b6040516101c59190612a7f565b60405180910390f35b6101e860048036038101906101e3919061237d565b610671565b005b61020460048036038101906101ff919061222f565b6106ff565b005b610220600480360381019061021b919061251b565b6107a0565b60405161022d9190612a0b565b60405180910390f35b61023e610951565b005b61025a600480360381019061025591906124a0565b6109d9565b005b610264610a67565b604051610271919061292e565b60405180910390f35b610282610a91565b60405161028f9190612a7f565b60405180910390f35b6102b260048036038101906102ad9190612428565b610b1f565b005b6102ce60048036038101906102c991906121f3565b610b35565b6040516102db9190612a64565b60405180910390f35b6102fe60048036038101906102f991906122ee565b610bc9565b005b61031a600480360381019061031591906121ca565b610c6a565b005b60008073ffffffffffffffffffffffffffffffffffffffff168373ffffffffffffffffffffffffffffffffffffffff16141561038d576040517f08c379a000000000000000000000000000000000000000000000000000000000815260040161038490612ae1565b60405180910390fd5b60008083815260200190815260200160002060008473ffffffffffffffffffffffffffffffffffffffff1673ffffffffffffffffffffffffffffffffffffffff16815260200190815260200160002054905092915050565b60007fd9b67a26000000000000000000000000000000000000000000000000000000007bffffffffffffffffffffffffffffffffffffffffffffffffffffffff1916827bffffffffffffffffffffffffffffffffffffffffffffffffffffffff191614806104b057507f0e89341c000000000000000000000000000000000000000000000000000000007bffffffffffffffffffffffffffffffffffffffffffffffffffffffff1916827bffffffffffffffffffffffffffffffffffffffffffffffffffffffff1916145b806104c057506104bf82610d62565b5b9050919050565b6104cf610dcc565b73ffffffffffffffffffffffffffffffffffffffff166104ed610a67565b73ffffffffffffffffffffffffffffffffffffffff1614610543576040517f08c379a000000000000000000000000000000000000000000000000000000000815260040161053a90612ba1565b60405180910390fd5b61054c81610dd4565b50565b6004805461055c90612ee1565b80601f016020809104026020016040519081016040528092919081815260200182805461058890612ee1565b80156105d55780601f106105aa576101008083540402835291602001916105d5565b820191906000526020600020905b8154815290600101906020018083116105b857829003601f168201915b505050505081565b6060600280546105ec90612ee1565b80601f016020809104026020016040519081016040528092919081815260200182805461061890612ee1565b80156106655780601f1061063a57610100808354040283529160200191610665565b820191906000526020600020905b81548152906001019060200180831161064857829003601f168201915b50505050509050919050565b610679610dcc565b73ffffffffffffffffffffffffffffffffffffffff16610697610a67565b73ffffffffffffffffffffffffffffffffffffffff16146106ed576040517f08c379a00000000000000000000000000000000000000000000000000000000081526004016106e490612ba1565b60405180910390fd5b6106f984848484610dee565b50505050565b610707610dcc565b73ffffffffffffffffffffffffffffffffffffffff168573ffffffffffffffffffffffffffffffffffffffff16148061074d575061074c85610747610dcc565b610b35565b5b61078c576040517f08c379a000000000000000000000000000000000000000000000000000000000815260040161078390612b61565b60405180910390fd5b6107998585858585611058565b5050505050565b606081518351146107e6576040517f08c379a00000000000000000000000000000000000000000000000000000000081526004016107dd90612be1565b60405180910390fd5b6000835167ffffffffffffffff811115610829577f4e487b7100000000000000000000000000000000000000000000000000000000600052604160045260246000fd5b6040519080825280602002602001820160405280156108575781602001602082028036833780820191505090505b50905060005b8451811015610946576108f08582815181106108a2577f4e487b7100000000000000000000000000000000000000000000000000000000600052603260045260246000fd5b60200260200101518583815181106108e3577f4e487b7100000000000000000000000000000000000000000000000000000000600052603260045260246000fd5b602002602001015161031c565b828281518110610929577f4e487b7100000000000000000000000000000000000000000000000000000000600052603260045260246000fd5b6020026020010181815250508061093f90612f44565b905061085d565b508091505092915050565b610959610dcc565b73ffffffffffffffffffffffffffffffffffffffff16610977610a67565b73ffffffffffffffffffffffffffffffffffffffff16146109cd576040517f08c379a00000000000000000000000000000000000000000000000000000000081526004016109c490612ba1565b60405180910390fd5b6109d760006113b8565b565b6109e1610dcc565b73ffffffffffffffffffffffffffffffffffffffff166109ff610a67565b73ffffffffffffffffffffffffffffffffffffffff1614610a55576040517f08c379a0000000000000000000000000000000000000000000000000000000008152600401610a4c90612ba1565b60405180910390fd5b610a618484848461147e565b50505050565b6000600360009054906101000a900473ffffffffffffffffffffffffffffffffffffffff16905090565b60058054610a9e90612ee1565b80601f0160208091040260200160405190810160405280929190818152602001828054610aca90612ee1565b8015610b175780601f10610aec57610100808354040283529160200191610b17565b820191906000526020600020905b815481529060010190602001808311610afa57829003601f168201915b505050505081565b610b31610b2a610dcc565b8383611614565b5050565b6000600160008473ffffffffffffffffffffffffffffffffffffffff1673ffffffffffffffffffffffffffffffffffffffff16815260200190815260200160002060008373ffffffffffffffffffffffffffffffffffffffff1673ffffffffffffffffffffffffffffffffffffffff16815260200190815260200160002060009054906101000a900460ff16905092915050565b610bd1610dcc565b73ffffffffffffffffffffffffffffffffffffffff168573ffffffffffffffffffffffffffffffffffffffff161480610c175750610c1685610c11610dcc565b610b35565b5b610c56576040517f08c379a0000000000000000000000000000000000000000000000000000000008152600401610c4d90612b21565b60405180910390fd5b610c638585858585611781565b5050505050565b610c72610dcc565b73ffffffffffffffffffffffffffffffffffffffff16610c90610a67565b73ffffffffffffffffffffffffffffffffffffffff1614610ce6576040517f08c379a0000000000000000000000000000000000000000000000000000000008152600401610cdd90612ba1565b60405180910390fd5b600073ffffffffffffffffffffffffffffffffffffffff168173ffffffffffffffffffffffffffffffffffffffff161415610d56576040517f08c379a0000000000000000000000000000000000000000000000000000000008152600401610d4d90612b01565b60405180910390fd5b610d5f816113b8565b50565b60007f01ffc9a7000000000000000000000000000000000000000000000000000000007bffffffffffffffffffffffffffffffffffffffffffffffffffffffff1916827bffffffffffffffffffffffffffffffffffffffffffffffffffffffff1916149050919050565b600033905090565b8060029080519060200190610dea929190611ec2565b5050565b600073ffffffffffffffffffffffffffffffffffffffff168473ffffffffffffffffffffffffffffffffffffffff161415610e5e576040517f08c379a0000000000000000000000000000000000000000000000000000000008152600401610e5590612c21565b60405180910390fd5b8151835114610ea2576040517f08c379a0000000000000000000000000000000000000000000000000000000008152600401610e9990612c01565b60405180910390fd5b6000610eac610dcc565b9050610ebd81600087878787611a03565b60005b8451811015610fc257838181518110610f02577f4e487b7100000000000000000000000000000000000000000000000000000000600052603260045260246000fd5b6020026020010151600080878481518110610f46577f4e487b7100000000000000000000000000000000000000000000000000000000600052603260045260246000fd5b6020026020010151815260200190815260200160002060008873ffffffffffffffffffffffffffffffffffffffff1673ffffffffffffffffffffffffffffffffffffffff1681526020019081526020016000206000828254610fa89190612dd5565b925050819055508080610fba90612f44565b915050610ec0565b508473ffffffffffffffffffffffffffffffffffffffff16600073ffffffffffffffffffffffffffffffffffffffff168273ffffffffffffffffffffffffffffffffffffffff167f4a39dc06d4c0dbc64b70af90fd698a233a518aa5d07e595d983b8c0526c8f7fb878760405161103a929190612a2d565b60405180910390a461105181600087878787611a0b565b5050505050565b815183511461109c576040517f08c379a000000000000000000000000000000000000000000000000000000000815260040161109390612c01565b60405180910390fd5b600073ffffffffffffffffffffffffffffffffffffffff168473ffffffffffffffffffffffffffffffffffffffff16141561110c576040517f08c379a000000000000000000000000000000000000000000000000000000000815260040161110390612b41565b60405180910390fd5b6000611116610dcc565b9050611126818787878787611a03565b60005b845181101561132357600085828151811061116d577f4e487b7100000000000000000000000000000000000000000000000000000000600052603260045260246000fd5b6020026020010151905060008583815181106111b2577f4e487b7100000000000000000000000000000000000000000000000000000000600052603260045260246000fd5b60200260200101519050600080600084815260200190815260200160002060008b73ffffffffffffffffffffffffffffffffffffffff1673ffffffffffffffffffffffffffffffffffffffff16815260200190815260200160002054905081811015611253576040517f08c379a000000000000000000000000000000000000000000000000000000000815260040161124a90612b81565b60405180910390fd5b81810360008085815260200190815260200160002060008c73ffffffffffffffffffffffffffffffffffffffff1673ffffffffffffffffffffffffffffffffffffffff168152602001908152602001600020819055508160008085815260200190815260200160002060008b73ffffffffffffffffffffffffffffffffffffffff1673ffffffffffffffffffffffffffffffffffffffff16815260200190815260200160002060008282546113089190612dd5565b925050819055505050508061131c90612f44565b9050611129565b508473ffffffffffffffffffffffffffffffffffffffff168673ffffffffffffffffffffffffffffffffffffffff168273ffffffffffffffffffffffffffffffffffffffff167f4a39dc06d4c0dbc64b70af90fd698a233a518aa5d07e595d983b8c0526c8f7fb878760405161139a929190612a2d565b60405180910390a46113b0818787878787611a0b565b505050505050565b6000600360009054906101000a900473ffffffffffffffffffffffffffffffffffffffff16905081600360006101000a81548173ffffffffffffffffffffffffffffffffffffffff021916908373ffffffffffffffffffffffffffffffffffffffff1602179055508173ffffffffffffffffffffffffffffffffffffffff168173ffffffffffffffffffffffffffffffffffffffff167f8be0079c531659141344cd1fd0a4f28419497f9722a3daafe3b4186f6b6457e060405160405180910390a35050565b600073ffffffffffffffffffffffffffffffffffffffff168473ffffffffffffffffffffffffffffffffffffffff1614156114ee576040517f08c379a00000000000000000000000000000000000000000000000000000000081526004016114e590612c21565b60405180910390fd5b60006114f8610dcc565b90506115198160008761150a88611bf2565b61151388611bf2565b87611a03565b8260008086815260200190815260200160002060008773ffffffffffffffffffffffffffffffffffffffff1673ffffffffffffffffffffffffffffffffffffffff16815260200190815260200160002060008282546115789190612dd5565b925050819055508473ffffffffffffffffffffffffffffffffffffffff16600073ffffffffffffffffffffffffffffffffffffffff168273ffffffffffffffffffffffffffffffffffffffff167fc3d58168c5ae7397731d063d5bbf3d657854427343f4c083240f7aacaa2d0f6287876040516115f6929190612c5c565b60405180910390a461160d81600087878787611cb8565b5050505050565b8173ffffffffffffffffffffffffffffffffffffffff168373ffffffffffffffffffffffffffffffffffffffff161415611683576040517f08c379a000000000000000000000000000000000000000000000000000000000815260040161167a90612bc1565b60405180910390fd5b80600160008573ffffffffffffffffffffffffffffffffffffffff1673ffffffffffffffffffffffffffffffffffffffff16815260200190815260200160002060008473ffffffffffffffffffffffffffffffffffffffff1673ffffffffffffffffffffffffffffffffffffffff16815260200190815260200160002060006101000a81548160ff0219169083151502179055508173ffffffffffffffffffffffffffffffffffffffff168373ffffffffffffffffffffffffffffffffffffffff167f17307eab39ab6107e8899845ad3d59bd9653f200f220920489ca2b5937696c31836040516117749190612a64565b60405180910390a3505050565b600073ffffffffffffffffffffffffffffffffffffffff168473ffffffffffffffffffffffffffffffffffffffff1614156117f1576040517f08c379a00000000000000000000000000000000000000000000000000000000081526004016117e890612b41565b60405180910390fd5b60006117fb610dcc565b905061181b81878761180c88611bf2565b61181588611bf2565b87611a03565b600080600086815260200190815260200160002060008873ffffffffffffffffffffffffffffffffffffffff1673ffffffffffffffffffffffffffffffffffffffff168152602001908152602001600020549050838110156118b2576040517f08c379a00000000000000000000000000000000000000000000000000000000081526004016118a990612b81565b60405180910390fd5b83810360008087815260200190815260200160002060008973ffffffffffffffffffffffffffffffffffffffff1673ffffffffffffffffffffffffffffffffffffffff168152602001908152602001600020819055508360008087815260200190815260200160002060008873ffffffffffffffffffffffffffffffffffffffff1673ffffffffffffffffffffffffffffffffffffffff16815260200190815260200160002060008282546119679190612dd5565b925050819055508573ffffffffffffffffffffffffffffffffffffffff168773ffffffffffffffffffffffffffffffffffffffff168373ffffffffffffffffffffffffffffffffffffffff167fc3d58168c5ae7397731d063d5bbf3d657854427343f4c083240f7aacaa2d0f6288886040516119e4929190612c5c565b60405180910390a46119fa828888888888611cb8565b50505050505050565b505050505050565b611a2a8473ffffffffffffffffffffffffffffffffffffffff16611e9f565b15611bea578373ffffffffffffffffffffffffffffffffffffffff1663bc197c8187878686866040518663ffffffff1660e01b8152600401611a70959493929190612949565b602060405180830381600087803b158015611a8a57600080fd5b505af1925050508015611abb57506040513d601f19601f82011682018060405250810190611ab891906125b0565b60015b611b6157611ac761301a565b806308c379a01415611b245750611adc613437565b80611ae75750611b26565b806040517f08c379a0000000000000000000000000000000000000000000000000000000008152600401611b1b9190612a7f565b60405180910390fd5b505b6040517f08c379a0000000000000000000000000000000000000000000000000000000008152600401611b5890612aa1565b60405180910390fd5b63bc197c8160e01b7bffffffffffffffffffffffffffffffffffffffffffffffffffffffff1916817bffffffffffffffffffffffffffffffffffffffffffffffffffffffff191614611be8576040517f08c379a0000000000000000000000000000000000000000000000000000000008152600401611bdf90612ac1565b60405180910390fd5b505b505050505050565b60606000600167ffffffffffffffff811115611c37577f4e487b7100000000000000000000000000000000000000000000000000000000600052604160045260246000fd5b604051908082528060200260200182016040528015611c655781602001602082028036833780820191505090505b5090508281600081518110611ca3577f4e487b7100000000000000000000000000000000000000000000000000000000600052603260045260246000fd5b60200260200101818152505080915050919050565b611cd78473ffffffffffffffffffffffffffffffffffffffff16611e9f565b15611e97578373ffffffffffffffffffffffffffffffffffffffff1663f23a6e6187878686866040518663ffffffff1660e01b8152600401611d1d9594939291906129b1565b602060405180830381600087803b158015611d3757600080fd5b505af1925050508015611d6857506040513d601f19601f82011682018060405250810190611d6591906125b0565b60015b611e0e57611d7461301a565b806308c379a01415611dd15750611d89613437565b80611d945750611dd3565b806040517f08c379a0000000000000000000000000000000000000000000000000000000008152600401611dc89190612a7f565b60405180910390fd5b505b6040517f08c379a0000000000000000000000000000000000000000000000000000000008152600401611e0590612aa1565b60405180910390fd5b63f23a6e6160e01b7bffffffffffffffffffffffffffffffffffffffffffffffffffffffff1916817bffffffffffffffffffffffffffffffffffffffffffffffffffffffff191614611e95576040517f08c379a0000000000000000000000000000000000000000000000000000000008152600401611e8c90612ac1565b60405180910390fd5b505b505050505050565b6000808273ffffffffffffffffffffffffffffffffffffffff163b119050919050565b828054611ece90612ee1565b90600052602060002090601f016020900481019282611ef05760008555611f37565b82601f10611f0957805160ff1916838001178555611f37565b82800160010185558215611f37579182015b82811115611f36578251825591602001919060010190611f1b565b5b509050611f449190611f48565b5090565b5b80821115611f61576000816000905550600101611f49565b5090565b6000611f78611f7384612caa565b612c85565b90508083825260208201905082856020860282011115611f9757600080fd5b60005b85811015611fc75781611fad88826120b9565b845260208401935060208301925050600181019050611f9a565b5050509392505050565b6000611fe4611fdf84612cd6565b612c85565b9050808382526020820190508285602086028201111561200357600080fd5b60005b85811015612033578161201988826121b5565b845260208401935060208301925050600181019050612006565b5050509392505050565b600061205061204b84612d02565b612c85565b90508281526020810184848401111561206857600080fd5b612073848285612e9f565b509392505050565b600061208e61208984612d33565b612c85565b9050828152602081018484840111156120a657600080fd5b6120b1848285612e9f565b509392505050565b6000813590506120c8816134cd565b92915050565b600082601f8301126120df57600080fd5b81356120ef848260208601611f65565b91505092915050565b600082601f83011261210957600080fd5b8135612119848260208601611fd1565b91505092915050565b600081359050612131816134e4565b92915050565b600081359050612146816134fb565b92915050565b60008151905061215b816134fb565b92915050565b600082601f83011261217257600080fd5b813561218284826020860161203d565b91505092915050565b600082601f83011261219c57600080fd5b81356121ac84826020860161207b565b91505092915050565b6000813590506121c481613512565b92915050565b6000602082840312156121dc57600080fd5b60006121ea848285016120b9565b91505092915050565b6000806040838503121561220657600080fd5b6000612214858286016120b9565b9250506020612225858286016120b9565b9150509250929050565b600080600080600060a0868803121561224757600080fd5b6000612255888289016120b9565b9550506020612266888289016120b9565b945050604086013567ffffffffffffffff81111561228357600080fd5b61228f888289016120f8565b935050606086013567ffffffffffffffff8111156122ac57600080fd5b6122b8888289016120f8565b925050608086013567ffffffffffffffff8111156122d557600080fd5b6122e188828901612161565b9150509295509295909350565b600080600080600060a0868803121561230657600080fd5b6000612314888289016120b9565b9550506020612325888289016120b9565b9450506040612336888289016121b5565b9350506060612347888289016121b5565b925050608086013567ffffffffffffffff81111561236457600080fd5b61237088828901612161565b9150509295509295909350565b6000806000806080858703121561239357600080fd5b60006123a1878288016120b9565b945050602085013567ffffffffffffffff8111156123be57600080fd5b6123ca878288016120f8565b935050604085013567ffffffffffffffff8111156123e757600080fd5b6123f3878288016120f8565b925050606085013567ffffffffffffffff81111561241057600080fd5b61241c87828801612161565b91505092959194509250565b6000806040838503121561243b57600080fd5b6000612449858286016120b9565b925050602061245a85828601612122565b9150509250929050565b6000806040838503121561247757600080fd5b6000612485858286016120b9565b9250506020612496858286016121b5565b9150509250929050565b600080600080608085870312156124b657600080fd5b60006124c4878288016120b9565b94505060206124d5878288016121b5565b93505060406124e6878288016121b5565b925050606085013567ffffffffffffffff81111561250357600080fd5b61250f87828801612161565b91505092959194509250565b6000806040838503121561252e57600080fd5b600083013567ffffffffffffffff81111561254857600080fd5b612554858286016120ce565b925050602083013567ffffffffffffffff81111561257157600080fd5b61257d858286016120f8565b9150509250929050565b60006020828403121561259957600080fd5b60006125a784828501612137565b91505092915050565b6000602082840312156125c257600080fd5b60006125d08482850161214c565b91505092915050565b6000602082840312156125eb57600080fd5b600082013567ffffffffffffffff81111561260557600080fd5b6126118482850161218b565b91505092915050565b60006020828403121561262c57600080fd5b600061263a848285016121b5565b91505092915050565b600061264f8383612910565b60208301905092915050565b61266481612e2b565b82525050565b600061267582612d74565b61267f8185612da2565b935061268a83612d64565b8060005b838110156126bb5781516126a28882612643565b97506126ad83612d95565b92505060018101905061268e565b5085935050505092915050565b6126d181612e3d565b82525050565b60006126e282612d7f565b6126ec8185612db3565b93506126fc818560208601612eae565b6127058161303c565b840191505092915050565b600061271b82612d8a565b6127258185612dc4565b9350612735818560208601612eae565b61273e8161303c565b840191505092915050565b6000612756603483612dc4565b91506127618261305a565b604082019050919050565b6000612779602883612dc4565b9150612784826130a9565b604082019050919050565b600061279c602b83612dc4565b91506127a7826130f8565b604082019050919050565b60006127bf602683612dc4565b91506127ca82613147565b604082019050919050565b60006127e2602983612dc4565b91506127ed82613196565b604082019050919050565b6000612805602583612dc4565b9150612810826131e5565b604082019050919050565b6000612828603283612dc4565b915061283382613234565b604082019050919050565b600061284b602a83612dc4565b915061285682613283565b604082019050919050565b600061286e602083612dc4565b9150612879826132d2565b602082019050919050565b6000612891602983612dc4565b915061289c826132fb565b604082019050919050565b60006128b4602983612dc4565b91506128bf8261334a565b604082019050919050565b60006128d7602883612dc4565b91506128e282613399565b604082019050919050565b60006128fa602183612dc4565b9150612905826133e8565b604082019050919050565b61291981612e95565b82525050565b61292881612e95565b82525050565b6000602082019050612943600083018461265b565b92915050565b600060a08201905061295e600083018861265b565b61296b602083018761265b565b818103604083015261297d818661266a565b90508181036060830152612991818561266a565b905081810360808301526129a581846126d7565b90509695505050505050565b600060a0820190506129c6600083018861265b565b6129d3602083018761265b565b6129e0604083018661291f565b6129ed606083018561291f565b81810360808301526129ff81846126d7565b90509695505050505050565b60006020820190508181036000830152612a25818461266a565b905092915050565b60006040820190508181036000830152612a47818561266a565b90508181036020830152612a5b818461266a565b90509392505050565b6000602082019050612a7960008301846126c8565b92915050565b60006020820190508181036000830152612a998184612710565b905092915050565b60006020820190508181036000830152612aba81612749565b9050919050565b60006020820190508181036000830152612ada8161276c565b9050919050565b60006020820190508181036000830152612afa8161278f565b9050919050565b60006020820190508181036000830152612b1a816127b2565b9050919050565b60006020820190508181036000830152612b3a816127d5565b9050919050565b60006020820190508181036000830152612b5a816127f8565b9050919050565b60006020820190508181036000830152612b7a8161281b565b9050919050565b60006020820190508181036000830152612b9a8161283e565b9050919050565b60006020820190508181036000830152612bba81612861565b9050919050565b60006020820190508181036000830152612bda81612884565b9050919050565b60006020820190508181036000830152612bfa816128a7565b9050919050565b60006020820190508181036000830152612c1a816128ca565b9050919050565b60006020820190508181036000830152612c3a816128ed565b9050919050565b6000602082019050612c56600083018461291f565b92915050565b6000604082019050612c71600083018561291f565b612c7e602083018461291f565b9392505050565b6000612c8f612ca0565b9050612c9b8282612f13565b919050565b6000604051905090565b600067ffffffffffffffff821115612cc557612cc4612feb565b5b602082029050602081019050919050565b600067ffffffffffffffff821115612cf157612cf0612feb565b5b602082029050602081019050919050565b600067ffffffffffffffff821115612d1d57612d1c612feb565b5b612d268261303c565b9050602081019050919050565b600067ffffffffffffffff821115612d4e57612d4d612feb565b5b612d578261303c565b9050602081019050919050565b6000819050602082019050919050565b600081519050919050565b600081519050919050565b600081519050919050565b6000602082019050919050565b600082825260208201905092915050565b600082825260208201905092915050565b600082825260208201905092915050565b6000612de082612e95565b9150612deb83612e95565b9250827fffffffffffffffffffffffffffffffffffffffffffffffffffffffffffffffff03821115612e2057612e1f612f8d565b5b828201905092915050565b6000612e3682612e75565b9050919050565b60008115159050919050565b60007fffffffff0000000000000000000000000000000000000000000000000000000082169050919050565b600073ffffffffffffffffffffffffffffffffffffffff82169050919050565b6000819050919050565b82818337600083830152505050565b60005b83811015612ecc578082015181840152602081019050612eb1565b83811115612edb576000848401525b50505050565b60006002820490506001821680612ef957607f821691505b60208210811415612f0d57612f0c612fbc565b5b50919050565b612f1c8261303c565b810181811067ffffffffffffffff82111715612f3b57612f3a612feb565b5b80604052505050565b6000612f4f82612e95565b91507fffffffffffffffffffffffffffffffffffffffffffffffffffffffffffffffff821415612f8257612f81612f8d565b5b600182019050919050565b7f4e487b7100000000000000000000000000000000000000000000000000000000600052601160045260246000fd5b7f4e487b7100000000000000000000000000000000000000000000000000000000600052602260045260246000fd5b7f4e487b7100000000000000000000000000000000000000000000000000000000600052604160045260246000fd5b600060033d11156130395760046000803e61303660005161304d565b90505b90565b6000601f19601f8301169050919050565b60008160e01c9050919050565b7f455243313135353a207472616e7366657220746f206e6f6e204552433131353560008201527f526563656976657220696d706c656d656e746572000000000000000000000000602082015250565b7f455243313135353a204552433131353552656365697665722072656a6563746560008201527f6420746f6b656e73000000000000000000000000000000000000000000000000602082015250565b7f455243313135353a2062616c616e636520717565727920666f7220746865207a60008201527f65726f2061646472657373000000000000000000000000000000000000000000602082015250565b7f4f776e61626c653a206e6577206f776e657220697320746865207a65726f206160008201527f6464726573730000000000000000000000000000000000000000000000000000602082015250565b7f455243313135353a2063616c6c6572206973206e6f74206f776e6572206e6f7260008201527f20617070726f7665640000000000000000000000000000000000000000000000602082015250565b7f455243313135353a207472616e7366657220746f20746865207a65726f20616460008201527f6472657373000000000000000000000000000000000000000000000000000000602082015250565b7f455243313135353a207472616e736665722063616c6c6572206973206e6f742060008201527f6f776e6572206e6f7220617070726f7665640000000000000000000000000000602082015250565b7f455243313135353a20696e73756666696369656e742062616c616e636520666f60008201527f72207472616e7366657200000000000000000000000000000000000000000000602082015250565b7f4f776e61626c653a2063616c6c6572206973206e6f7420746865206f776e6572600082015250565b7f455243313135353a2073657474696e6720617070726f76616c2073746174757360008201527f20666f722073656c660000000000000000000000000000000000000000000000602082015250565b7f455243313135353a206163636f756e747320616e6420696473206c656e67746860008201527f206d69736d617463680000000000000000000000000000000000000000000000602082015250565b7f455243313135353a2069647320616e6420616d6f756e7473206c656e6774682060008201527f6d69736d61746368000000000000000000000000000000000000000000000000602082015250565b7f455243313135353a206d696e7420746f20746865207a65726f2061646472657360008201527f7300000000000000000000000000000000000000000000000000000000000000602082015250565b600060443d1015613447576134ca565b61344f612ca0565b60043d036004823e80513d602482011167ffffffffffffffff821117156134775750506134ca565b808201805167ffffffffffffffff81111561349557505050506134ca565b80602083010160043d0385018111156134b25750505050506134ca565b6134c182602001850186612f13565b82955050505050505b90565b6134d681612e2b565b81146134e157600080fd5b50565b6134ed81612e3d565b81146134f857600080fd5b50565b61350481612e49565b811461350f57600080fd5b50565b61351b81612e95565b811461352657600080fd5b5056fea26469706673582212206832a8e211c06660568c0f4cc614eff9663616a9e42989d4332069373433e2d964736f6c63430008040033",
  "linkReferences": {},
  "deployedLinkReferences": {}
}